{
  "_format": "hh-sol-artifact-1",
  "contractName": "TipBot",
  "sourceName": "contracts/TipBot.sol",
  "abi": [
    {
      "inputs": [],
      "stateMutability": "nonpayable",
      "type": "constructor"
    },
    {
      "anonymous": false,
      "inputs": [
        {
          "indexed": true,
          "internalType": "string",
          "name": "userId",
          "type": "string"
        },
        {
          "indexed": false,
          "internalType": "uint256",
          "name": "amount",
          "type": "uint256"
        }
      ],
      "name": "Deposit",
      "type": "event"
    },
    {
      "anonymous": false,
      "inputs": [
        {
          "indexed": false,
          "internalType": "uint256",
          "name": "newFeePercent",
          "type": "uint256"
        }
      ],
      "name": "FeeUpdated",
      "type": "event"
    },
    {
      "anonymous": false,
      "inputs": [
        {
          "indexed": true,
          "internalType": "string",
          "name": "fromUserId",
          "type": "string"
        },
        {
          "indexed": true,
          "internalType": "string",
          "name": "toUserId",
          "type": "string"
        },
        {
          "indexed": false,
          "internalType": "uint256",
          "name": "amount",
          "type": "uint256"
        },
        {
          "indexed": false,
          "internalType": "uint256",
          "name": "fee",
          "type": "uint256"
        }
      ],
      "name": "Tip",
      "type": "event"
    },
    {
      "anonymous": false,
      "inputs": [
        {
          "indexed": true,
          "internalType": "string",
          "name": "userId",
          "type": "string"
        },
        {
          "indexed": false,
          "internalType": "address",
          "name": "to",
          "type": "address"
        },
        {
          "indexed": false,
          "internalType": "uint256",
          "name": "amount",
          "type": "uint256"
        }
      ],
      "name": "Withdraw",
      "type": "event"
    },
    {
      "inputs": [],
      "name": "MAX_FEE_PERCENT",
      "outputs": [
        {
          "internalType": "uint256",
          "name": "",
          "type": "uint256"
        }
      ],
      "stateMutability": "view",
      "type": "function"
    },
    {
      "inputs": [
        {
          "internalType": "string",
          "name": "",
          "type": "string"
        }
      ],
      "name": "balances",
      "outputs": [
        {
          "internalType": "uint256",
          "name": "",
          "type": "uint256"
        }
      ],
      "stateMutability": "view",
      "type": "function"
    },
    {
      "inputs": [
        {
          "internalType": "string",
          "name": "userId",
          "type": "string"
        }
      ],
      "name": "deposit",
      "outputs": [],
      "stateMutability": "payable",
      "type": "function"
    },
    {
      "inputs": [
        {
          "internalType": "string",
          "name": "userId",
          "type": "string"
        }
      ],
      "name": "getBalance",
      "outputs": [
        {
          "internalType": "uint256",
          "name": "",
          "type": "uint256"
        }
      ],
      "stateMutability": "view",
      "type": "function"
    },
    {
      "inputs": [
        {
          "internalType": "string",
          "name": "userId",
          "type": "string"
        }
      ],
      "name": "getStats",
      "outputs": [
        {
          "internalType": "uint256",
          "name": "balance",
          "type": "uint256"
        },
        {
          "internalType": "uint256",
          "name": "sent",
          "type": "uint256"
        },
        {
          "internalType": "uint256",
          "name": "received",
          "type": "uint256"
        }
      ],
      "stateMutability": "view",
      "type": "function"
    },
    {
      "inputs": [],
      "name": "owner",
      "outputs": [
        {
          "internalType": "address",
          "name": "",
          "type": "address"
        }
      ],
      "stateMutability": "view",
      "type": "function"
    },
    {
      "inputs": [],
      "name": "platformFeePercent",
      "outputs": [
        {
          "internalType": "uint256",
          "name": "",
          "type": "uint256"
        }
      ],
      "stateMutability": "view",
      "type": "function"
    },
    {
      "inputs": [
        {
          "internalType": "string",
          "name": "fromUserId",
          "type": "string"
        },
        {
          "internalType": "string",
          "name": "toUserId",
          "type": "string"
        },
        {
          "internalType": "uint256",
          "name": "amount",
          "type": "uint256"
        }
      ],
      "name": "tip",
      "outputs": [],
      "stateMutability": "nonpayable",
      "type": "function"
    },
    {
      "inputs": [
        {
          "internalType": "string",
          "name": "",
          "type": "string"
        }
      ],
      "name": "totalTipsReceived",
      "outputs": [
        {
          "internalType": "uint256",
          "name": "",
          "type": "uint256"
        }
      ],
      "stateMutability": "view",
      "type": "function"
    },
    {
      "inputs": [
        {
          "internalType": "string",
          "name": "",
          "type": "string"
        }
      ],
      "name": "totalTipsSent",
      "outputs": [
        {
          "internalType": "uint256",
          "name": "",
          "type": "uint256"
        }
      ],
      "stateMutability": "view",
      "type": "function"
    },
    {
      "inputs": [
        {
          "internalType": "uint256",
          "name": "newFeePercent",
          "type": "uint256"
        }
      ],
      "name": "updatePlatformFee",
      "outputs": [],
      "stateMutability": "nonpayable",
      "type": "function"
    },
    {
      "inputs": [
        {
          "internalType": "string",
          "name": "userId",
          "type": "string"
        },
        {
          "internalType": "address payable",
          "name": "to",
          "type": "address"
        },
        {
          "internalType": "uint256",
          "name": "amount",
          "type": "uint256"
        }
      ],
      "name": "withdraw",
      "outputs": [],
      "stateMutability": "nonpayable",
      "type": "function"
    },
    {
      "inputs": [],
      "name": "withdrawFees",
      "outputs": [],
      "stateMutability": "nonpayable",
      "type": "function"
    },
    {
      "stateMutability": "payable",
      "type": "receive"
    }
  ],
  "bytecode": "0x60806040526001805534801561001457600080fd5b50336000806101000a81548173ffffffffffffffffffffffffffffffffffffffff021916908373ffffffffffffffffffffffffffffffffffffffff1602179055506118d1806100646000396000f3fe6080604052600436106100c65760003560e01c80638c639a851161007f578063a9ca1a3e11610059578063a9ca1a3e14610252578063aa0b59881461028f578063f042e361146102b8578063fa0ae768146102f5576100cd565b80638c639a85146101e05780638da5cb5b1461020b578063a26e118614610236576100cd565b806320cebbf6146100d25780632afd97a4146100fb5780633a51d24614610138578063476343ee146101755780635a73b0bf1461018c57806367d81740146101b5576100cd565b366100cd57005b600080fd5b3480156100de57600080fd5b506100f960048036038101906100f49190610f9b565b610334565b005b34801561010757600080fd5b50610122600480360381019061011d9190611026565b6106e6565b60405161012f919061107e565b60405180910390f35b34801561014457600080fd5b5061015f600480360381019061015a9190611026565b610714565b60405161016c919061107e565b60405180910390f35b34801561018157600080fd5b5061018a61073c565b005b34801561019857600080fd5b506101b360048036038101906101ae91906110f7565b6108a2565b005b3480156101c157600080fd5b506101ca610b36565b6040516101d7919061107e565b60405180910390f35b3480156101ec57600080fd5b506101f5610b3b565b604051610202919061107e565b60405180910390f35b34801561021757600080fd5b50610220610b41565b60405161022d9190611187565b60405180910390f35b610250600480360381019061024b9190611026565b610b65565b005b34801561025e57600080fd5b5061027960048036038101906102749190611026565b610c2d565b604051610286919061107e565b60405180910390f35b34801561029b57600080fd5b506102b660048036038101906102b191906111a2565b610c5b565b005b3480156102c457600080fd5b506102df60048036038101906102da9190611026565b610d6e565b6040516102ec919061107e565b60405180910390f35b34801561030157600080fd5b5061031c60048036038101906103179190611026565b610d9c565b60405161032b939291906111cf565b60405180910390f35b60008054906101000a900473ffffffffffffffffffffffffffffffffffffffff1673ffffffffffffffffffffffffffffffffffffffff163373ffffffffffffffffffffffffffffffffffffffff16146103c2576040517f08c379a00000000000000000000000000000000000000000000000000000000081526004016103b990611263565b60405180910390fd5b806002846040516103d391906112f4565b9081526020016040518091039020541015610423576040517f08c379a000000000000000000000000000000000000000000000000000000000815260040161041a90611357565b60405180910390fd5b60008111610466576040517f08c379a000000000000000000000000000000000000000000000000000000000815260040161045d906113c3565b60405180910390fd5b60008251116104aa576040517f08c379a00000000000000000000000000000000000000000000000000000000081526004016104a19061142f565b60405180910390fd5b60006064600154836104bc919061147e565b6104c691906114ef565b9050600081836104d69190611520565b9050826002866040516104e991906112f4565b908152602001604051809103902060008282546105069190611520565b925050819055508060028560405161051e91906112f4565b9081526020016040518091039020600082825461053b9190611554565b9250508190555060008060009054906101000a900473ffffffffffffffffffffffffffffffffffffffff1673ffffffffffffffffffffffffffffffffffffffff1683604051610589906115b9565b60006040518083038185875af1925050503d80600081146105c6576040519150601f19603f3d011682016040523d82523d6000602084013e6105cb565b606091505b505090508061060f576040517f08c379a00000000000000000000000000000000000000000000000000000000081526004016106069061161a565b60405180910390fd5b8360038760405161062091906112f4565b9081526020016040518091039020600082825461063d9190611554565b925050819055508160048660405161065591906112f4565b908152602001604051809103902060008282546106729190611554565b925050819055508460405161068791906112f4565b60405180910390208660405161069d91906112f4565b60405180910390207f4248b7faec681b29152d0d2d7ee324fe3866ca36c52a2a77eeede2c65ba6af5c84866040516106d692919061163a565b60405180910390a3505050505050565b6002818051602081018201805184825260208301602085012081835280955050505050506000915090505481565b600060028260405161072691906112f4565b9081526020016040518091039020549050919050565b60008054906101000a900473ffffffffffffffffffffffffffffffffffffffff1673ffffffffffffffffffffffffffffffffffffffff163373ffffffffffffffffffffffffffffffffffffffff16146107ca576040517f08c379a00000000000000000000000000000000000000000000000000000000081526004016107c190611263565b60405180910390fd5b60004790506000808060009054906101000a900473ffffffffffffffffffffffffffffffffffffffff1673ffffffffffffffffffffffffffffffffffffffff1683604051610817906115b9565b60006040518083038185875af1925050503d8060008114610854576040519150601f19603f3d011682016040523d82523d6000602084013e610859565b606091505b505090508061089d576040517f08c379a0000000000000000000000000000000000000000000000000000000008152600401610894906116af565b60405180910390fd5b505050565b60008054906101000a900473ffffffffffffffffffffffffffffffffffffffff1673ffffffffffffffffffffffffffffffffffffffff163373ffffffffffffffffffffffffffffffffffffffff1614610930576040517f08c379a000000000000000000000000000000000000000000000000000000000815260040161092790611263565b60405180910390fd5b8060028460405161094191906112f4565b9081526020016040518091039020541015610991576040517f08c379a000000000000000000000000000000000000000000000000000000000815260040161098890611357565b60405180910390fd5b600073ffffffffffffffffffffffffffffffffffffffff168273ffffffffffffffffffffffffffffffffffffffff1603610a00576040517f08c379a00000000000000000000000000000000000000000000000000000000081526004016109f79061171b565b60405180910390fd5b80600284604051610a1191906112f4565b90815260200160405180910390206000828254610a2e9190611520565b9250508190555060008273ffffffffffffffffffffffffffffffffffffffff1682604051610a5b906115b9565b60006040518083038185875af1925050503d8060008114610a98576040519150601f19603f3d011682016040523d82523d6000602084013e610a9d565b606091505b5050905080610ae1576040517f08c379a0000000000000000000000000000000000000000000000000000000008152600401610ad8906116af565b60405180910390fd5b83604051610aef91906112f4565b60405180910390207f7a5e5c901f9da945e2028bd646eb1f6842dff416e862cfa502e0d3408635143a8484604051610b2892919061179a565b60405180910390a250505050565b600581565b60015481565b60008054906101000a900473ffffffffffffffffffffffffffffffffffffffff1681565b60003411610ba8576040517f08c379a0000000000000000000000000000000000000000000000000000000008152600401610b9f9061180f565b60405180910390fd5b34600282604051610bb991906112f4565b90815260200160405180910390206000828254610bd69190611554565b9250508190555080604051610beb91906112f4565b60405180910390207f135290006f1871309577d248cf00619459a79b4a735638108a2bb080319c90d634604051610c22919061107e565b60405180910390a250565b6003818051602081018201805184825260208301602085012081835280955050505050506000915090505481565b60008054906101000a900473ffffffffffffffffffffffffffffffffffffffff1673ffffffffffffffffffffffffffffffffffffffff163373ffffffffffffffffffffffffffffffffffffffff1614610ce9576040517f08c379a0000000000000000000000000000000000000000000000000000000008152600401610ce090611263565b60405180910390fd5b6005811115610d2d576040517f08c379a0000000000000000000000000000000000000000000000000000000008152600401610d249061187b565b60405180910390fd5b806001819055507f8c4d35e54a3f2ef1134138fd8ea3daee6a3c89e10d2665996babdf70261e2c7681604051610d63919061107e565b60405180910390a150565b6004818051602081018201805184825260208301602085012081835280955050505050506000915090505481565b6000806000600284604051610db191906112f4565b908152602001604051809103902054600385604051610dd091906112f4565b908152602001604051809103902054600486604051610def91906112f4565b9081526020016040518091039020549250925092509193909250565b6000604051905090565b600080fd5b600080fd5b600080fd5b600080fd5b6000601f19601f8301169050919050565b7f4e487b7100000000000000000000000000000000000000000000000000000000600052604160045260246000fd5b610e7282610e29565b810181811067ffffffffffffffff82111715610e9157610e90610e3a565b5b80604052505050565b6000610ea4610e0b565b9050610eb08282610e69565b919050565b600067ffffffffffffffff821115610ed057610ecf610e3a565b5b610ed982610e29565b9050602081019050919050565b82818337600083830152505050565b6000610f08610f0384610eb5565b610e9a565b905082815260208101848484011115610f2457610f23610e24565b5b610f2f848285610ee6565b509392505050565b600082601f830112610f4c57610f4b610e1f565b5b8135610f5c848260208601610ef5565b91505092915050565b6000819050919050565b610f7881610f65565b8114610f8357600080fd5b50565b600081359050610f9581610f6f565b92915050565b600080600060608486031215610fb457610fb3610e15565b5b600084013567ffffffffffffffff811115610fd257610fd1610e1a565b5b610fde86828701610f37565b935050602084013567ffffffffffffffff811115610fff57610ffe610e1a565b5b61100b86828701610f37565b925050604061101c86828701610f86565b9150509250925092565b60006020828403121561103c5761103b610e15565b5b600082013567ffffffffffffffff81111561105a57611059610e1a565b5b61106684828501610f37565b91505092915050565b61107881610f65565b82525050565b6000602082019050611093600083018461106f565b92915050565b600073ffffffffffffffffffffffffffffffffffffffff82169050919050565b60006110c482611099565b9050919050565b6110d4816110b9565b81146110df57600080fd5b50565b6000813590506110f1816110cb565b92915050565b6000806000606084860312156111105761110f610e15565b5b600084013567ffffffffffffffff81111561112e5761112d610e1a565b5b61113a86828701610f37565b935050602061114b868287016110e2565b925050604061115c86828701610f86565b9150509250925092565b600061117182611099565b9050919050565b61118181611166565b82525050565b600060208201905061119c6000830184611178565b92915050565b6000602082840312156111b8576111b7610e15565b5b60006111c684828501610f86565b91505092915050565b60006060820190506111e4600083018661106f565b6111f1602083018561106f565b6111fe604083018461106f565b949350505050565b600082825260208201905092915050565b7f4f6e6c79206f776e65722063616e2063616c6c20746869730000000000000000600082015250565b600061124d601883611206565b915061125882611217565b602082019050919050565b6000602082019050818103600083015261127c81611240565b9050919050565b600081519050919050565b600081905092915050565b60005b838110156112b757808201518184015260208101905061129c565b60008484015250505050565b60006112ce82611283565b6112d8818561128e565b93506112e8818560208601611299565b80840191505092915050565b600061130082846112c3565b915081905092915050565b7f496e73756666696369656e742062616c616e6365000000000000000000000000600082015250565b6000611341601483611206565b915061134c8261130b565b602082019050919050565b6000602082019050818103600083015261137081611334565b9050919050565b7f416d6f756e74206d7573742062652067726561746572207468616e2030000000600082015250565b60006113ad601d83611206565b91506113b882611377565b602082019050919050565b600060208201905081810360008301526113dc816113a0565b9050919050565b7f496e76616c696420726563697069656e74000000000000000000000000000000600082015250565b6000611419601183611206565b9150611424826113e3565b602082019050919050565b600060208201905081810360008301526114488161140c565b9050919050565b7f4e487b7100000000000000000000000000000000000000000000000000000000600052601160045260246000fd5b600061148982610f65565b915061149483610f65565b92508282026114a281610f65565b915082820484148315176114b9576114b861144f565b5b5092915050565b7f4e487b7100000000000000000000000000000000000000000000000000000000600052601260045260246000fd5b60006114fa82610f65565b915061150583610f65565b925082611515576115146114c0565b5b828204905092915050565b600061152b82610f65565b915061153683610f65565b925082820390508181111561154e5761154d61144f565b5b92915050565b600061155f82610f65565b915061156a83610f65565b92508282019050808211156115825761158161144f565b5b92915050565b600081905092915050565b50565b60006115a3600083611588565b91506115ae82611593565b600082019050919050565b60006115c482611596565b9150819050919050565b7f466565207472616e73666572206661696c656400000000000000000000000000600082015250565b6000611604601383611206565b915061160f826115ce565b602082019050919050565b60006020820190508181036000830152611633816115f7565b9050919050565b600060408201905061164f600083018561106f565b61165c602083018461106f565b9392505050565b7f5472616e73666572206661696c65640000000000000000000000000000000000600082015250565b6000611699600f83611206565b91506116a482611663565b602082019050919050565b600060208201905081810360008301526116c88161168c565b9050919050565b7f496e76616c696420616464726573730000000000000000000000000000000000600082015250565b6000611705600f83611206565b9150611710826116cf565b602082019050919050565b60006020820190508181036000830152611734816116f8565b9050919050565b6000819050919050565b600061176061175b61175684611099565b61173b565b611099565b9050919050565b600061177282611745565b9050919050565b600061178482611767565b9050919050565b61179481611779565b82525050565b60006040820190506117af600083018561178b565b6117bc602083018461106f565b9392505050565b7f4d7573742073656e642045544800000000000000000000000000000000000000600082015250565b60006117f9600d83611206565b9150611804826117c3565b602082019050919050565b60006020820190508181036000830152611828816117ec565b9050919050565b7f46656520746f6f20686967680000000000000000000000000000000000000000600082015250565b6000611865600c83611206565b91506118708261182f565b602082019050919050565b6000602082019050818103600083015261189481611858565b905091905056fea264697066735822122041ccdedb41abf30039e5135b9851ce52ba61d1b10e0e215c05dbba186b748d2064736f6c63430008140033",
  "linkReferences": {},
  "deployedLinkReferences": {}
}