{
  "_format": "hh-sol-artifact-1",
  "contractName": "TipBot",
  "sourceName": "contracts/TipBot.sol",
  "abi": [
    {
      "inputs": [],
      "stateMutability": "nonpayable",
      "type": "constructor"
    },
    {
      "anonymous": false,
      "inputs": [
        {
          "indexed": true,
          "internalType": "string",
          "name": "userId",
          "type": "string"
        },
        {
          "indexed": false,
          "internalType": "uint256",
          "name": "amount",
          "type": "uint256"
        }
      ],
      "name": "Deposit",
      "type": "event"
    },
    {
      "anonymous": false,
      "inputs": [
        {
          "indexed": false,
          "internalType": "uint256",
          "name": "newFeePercent",
          "type": "uint256"
        }
      ],
      "name": "FeeUpdated",
      "type": "event"
    },
    {
      "anonymous": false,
      "inputs": [
        {
          "indexed": true,
          "internalType": "string",
          "name": "fromUserId",
          "type": "string"
        },
        {
          "indexed": true,
          "internalType": "string",
          "name": "toUserId",
          "type": "string"
        },
        {
          "indexed": false,
          "internalType": "uint256",
          "name": "amount",
          "type": "uint256"
        },
        {
          "indexed": false,
          "internalType": "uint256",
          "name": "fee",
          "type": "uint256"
        }
      ],
      "name": "Tip",
      "type": "event"
    },
    {
      "anonymous": false,
      "inputs": [
        {
          "indexed": true,
          "internalType": "string",
          "name": "userId",
          "type": "string"
        },
        {
          "indexed": false,
          "internalType": "address",
          "name": "to",
          "type": "address"
        },
        {
          "indexed": false,
          "internalType": "uint256",
          "name": "amount",
          "type": "uint256"
        }
      ],
      "name": "Withdraw",
      "type": "event"
    },
    {
      "inputs": [],
      "name": "MAX_FEE_PERCENT",
      "outputs": [
        {
          "internalType": "uint256",
          "name": "",
          "type": "uint256"
        }
      ],
      "stateMutability": "view",
      "type": "function"
    },
    {
      "inputs": [
        {
          "internalType": "string",
          "name": "",
          "type": "string"
        }
      ],
      "name": "balances",
      "outputs": [
        {
          "internalType": "uint256",
          "name": "",
          "type": "uint256"
        }
      ],
      "stateMutability": "view",
      "type": "function"
    },
    {
      "inputs": [
        {
          "internalType": "string",
          "name": "userId",
          "type": "string"
        }
      ],
      "name": "deposit",
      "outputs": [],
      "stateMutability": "payable",
      "type": "function"
    },
    {
      "inputs": [
        {
          "internalType": "string",
          "name": "userId",
          "type": "string"
        }
      ],
      "name": "getBalance",
      "outputs": [
        {
          "internalType": "uint256",
          "name": "",
          "type": "uint256"
        }
      ],
      "stateMutability": "view",
      "type": "function"
    },
    {
      "inputs": [
        {
          "internalType": "string",
          "name": "userId",
          "type": "string"
        }
      ],
      "name": "getStats",
      "outputs": [
        {
          "internalType": "uint256",
          "name": "balance",
          "type": "uint256"
        },
        {
          "internalType": "uint256",
          "name": "sent",
          "type": "uint256"
        },
        {
          "internalType": "uint256",
          "name": "received",
          "type": "uint256"
        }
      ],
      "stateMutability": "view",
      "type": "function"
    },
    {
      "inputs": [],
      "name": "owner",
      "outputs": [
        {
          "internalType": "address",
          "name": "",
          "type": "address"
        }
      ],
      "stateMutability": "view",
      "type": "function"
    },
    {
      "inputs": [],
      "name": "platformFeePercent",
      "outputs": [
        {
          "internalType": "uint256",
          "name": "",
          "type": "uint256"
        }
      ],
      "stateMutability": "view",
      "type": "function"
    },
    {
      "inputs": [
        {
          "internalType": "string",
          "name": "fromUserId",
          "type": "string"
        },
        {
          "internalType": "string",
          "name": "toUserId",
          "type": "string"
        },
        {
          "internalType": "uint256",
          "name": "amount",
          "type": "uint256"
        }
      ],
      "name": "tip",
      "outputs": [],
      "stateMutability": "nonpayable",
      "type": "function"
    },
    {
      "inputs": [
        {
          "internalType": "string",
          "name": "",
          "type": "string"
        }
      ],
      "name": "totalTipsReceived",
      "outputs": [
        {
          "internalType": "uint256",
          "name": "",
          "type": "uint256"
        }
      ],
      "stateMutability": "view",
      "type": "function"
    },
    {
      "inputs": [
        {
          "internalType": "string",
          "name": "",
          "type": "string"
        }
      ],
      "name": "totalTipsSent",
      "outputs": [
        {
          "internalType": "uint256",
          "name": "",
          "type": "uint256"
        }
      ],
      "stateMutability": "view",
      "type": "function"
    },
    {
      "inputs": [
        {
          "internalType": "uint256",
          "name": "newFeePercent",
          "type": "uint256"
        }
      ],
      "name": "updatePlatformFee",
      "outputs": [],
      "stateMutability": "nonpayable",
      "type": "function"
    },
    {
      "inputs": [
        {
          "internalType": "string",
          "name": "userId",
          "type": "string"
        },
        {
          "internalType": "address payable",
          "name": "to",
          "type": "address"
        },
        {
          "internalType": "uint256",
          "name": "amount",
          "type": "uint256"
        }
      ],
      "name": "withdraw",
      "outputs": [],
      "stateMutability": "nonpayable",
      "type": "function"
    },
    {
      "inputs": [],
      "name": "withdrawFees",
      "outputs": [],
      "stateMutability": "nonpayable",
      "type": "function"
    },
    {
      "stateMutability": "payable",
      "type": "receive"
    }
  ],
  "bytecode": "0x60806040526001805534801561001457600080fd5b50336000806101000a81548173ffffffffffffffffffffffffffffffffffffffff021916908373ffffffffffffffffffffffffffffffffffffffff160217905550611797806100646000396000f3fe6080604052600436106100c65760003560e01c80638c639a851161007f578063a9ca1a3e11610059578063a9ca1a3e14610252578063aa0b59881461028f578063f042e361146102b8578063fa0ae768146102f5576100cd565b80638c639a85146101e05780638da5cb5b1461020b578063a26e118614610236576100cd565b806320cebbf6146100d25780632afd97a4146100fb5780633a51d24614610138578063476343ee146101755780635a73b0bf1461018c57806367d81740146101b5576100cd565b366100cd57005b600080fd5b3480156100de57600080fd5b506100f960048036038101906100f49190610ecd565b610334565b005b34801561010757600080fd5b50610122600480360381019061011d9190610f58565b610618565b60405161012f9190610fb0565b60405180910390f35b34801561014457600080fd5b5061015f600480360381019061015a9190610f58565b610646565b60405161016c9190610fb0565b60405180910390f35b34801561018157600080fd5b5061018a61066e565b005b34801561019857600080fd5b506101b360048036038101906101ae9190611029565b6107d4565b005b3480156101c157600080fd5b506101ca610a68565b6040516101d79190610fb0565b60405180910390f35b3480156101ec57600080fd5b506101f5610a6d565b6040516102029190610fb0565b60405180910390f35b34801561021757600080fd5b50610220610a73565b60405161022d91906110b9565b60405180910390f35b610250600480360381019061024b9190610f58565b610a97565b005b34801561025e57600080fd5b5061027960048036038101906102749190610f58565b610b5f565b6040516102869190610fb0565b60405180910390f35b34801561029b57600080fd5b506102b660048036038101906102b191906110d4565b610b8d565b005b3480156102c457600080fd5b506102df60048036038101906102da9190610f58565b610ca0565b6040516102ec9190610fb0565b60405180910390f35b34801561030157600080fd5b5061031c60048036038101906103179190610f58565b610cce565b60405161032b93929190611101565b60405180910390f35b60008054906101000a900473ffffffffffffffffffffffffffffffffffffffff1673ffffffffffffffffffffffffffffffffffffffff163373ffffffffffffffffffffffffffffffffffffffff16146103c2576040517f08c379a00000000000000000000000000000000000000000000000000000000081526004016103b990611195565b60405180910390fd5b806002846040516103d39190611226565b9081526020016040518091039020541015610423576040517f08c379a000000000000000000000000000000000000000000000000000000000815260040161041a90611289565b60405180910390fd5b60008111610466576040517f08c379a000000000000000000000000000000000000000000000000000000000815260040161045d906112f5565b60405180910390fd5b60008251116104aa576040517f08c379a00000000000000000000000000000000000000000000000000000000081526004016104a190611361565b60405180910390fd5b60006064600154836104bc91906113b0565b6104c69190611421565b9050600081836104d69190611452565b9050826002866040516104e99190611226565b908152602001604051809103902060008282546105069190611452565b925050819055508060028560405161051e9190611226565b9081526020016040518091039020600082825461053b9190611486565b92505081905550826003866040516105539190611226565b908152602001604051809103902060008282546105709190611486565b92505081905550806004856040516105889190611226565b908152602001604051809103902060008282546105a59190611486565b92505081905550836040516105ba9190611226565b6040518091039020856040516105d09190611226565b60405180910390207f4248b7faec681b29152d0d2d7ee324fe3866ca36c52a2a77eeede2c65ba6af5c83856040516106099291906114ba565b60405180910390a35050505050565b6002818051602081018201805184825260208301602085012081835280955050505050506000915090505481565b60006002826040516106589190611226565b9081526020016040518091039020549050919050565b60008054906101000a900473ffffffffffffffffffffffffffffffffffffffff1673ffffffffffffffffffffffffffffffffffffffff163373ffffffffffffffffffffffffffffffffffffffff16146106fc576040517f08c379a00000000000000000000000000000000000000000000000000000000081526004016106f390611195565b60405180910390fd5b60004790506000808060009054906101000a900473ffffffffffffffffffffffffffffffffffffffff1673ffffffffffffffffffffffffffffffffffffffff168360405161074990611514565b60006040518083038185875af1925050503d8060008114610786576040519150601f19603f3d011682016040523d82523d6000602084013e61078b565b606091505b50509050806107cf576040517f08c379a00000000000000000000000000000000000000000000000000000000081526004016107c690611575565b60405180910390fd5b505050565b60008054906101000a900473ffffffffffffffffffffffffffffffffffffffff1673ffffffffffffffffffffffffffffffffffffffff163373ffffffffffffffffffffffffffffffffffffffff1614610862576040517f08c379a000000000000000000000000000000000000000000000000000000000815260040161085990611195565b60405180910390fd5b806002846040516108739190611226565b90815260200160405180910390205410156108c3576040517f08c379a00000000000000000000000000000000000000000000000000000000081526004016108ba90611289565b60405180910390fd5b600073ffffffffffffffffffffffffffffffffffffffff168273ffffffffffffffffffffffffffffffffffffffff1603610932576040517f08c379a0000000000000000000000000000000000000000000000000000000008152600401610929906115e1565b60405180910390fd5b806002846040516109439190611226565b908152602001604051809103902060008282546109609190611452565b9250508190555060008273ffffffffffffffffffffffffffffffffffffffff168260405161098d90611514565b60006040518083038185875af1925050503d80600081146109ca576040519150601f19603f3d011682016040523d82523d6000602084013e6109cf565b606091505b5050905080610a13576040517f08c379a0000000000000000000000000000000000000000000000000000000008152600401610a0a90611575565b60405180910390fd5b83604051610a219190611226565b60405180910390207f7a5e5c901f9da945e2028bd646eb1f6842dff416e862cfa502e0d3408635143a8484604051610a5a929190611660565b60405180910390a250505050565b600581565b60015481565b60008054906101000a900473ffffffffffffffffffffffffffffffffffffffff1681565b60003411610ada576040517f08c379a0000000000000000000000000000000000000000000000000000000008152600401610ad1906116d5565b60405180910390fd5b34600282604051610aeb9190611226565b90815260200160405180910390206000828254610b089190611486565b9250508190555080604051610b1d9190611226565b60405180910390207f135290006f1871309577d248cf00619459a79b4a735638108a2bb080319c90d634604051610b549190610fb0565b60405180910390a250565b6003818051602081018201805184825260208301602085012081835280955050505050506000915090505481565b60008054906101000a900473ffffffffffffffffffffffffffffffffffffffff1673ffffffffffffffffffffffffffffffffffffffff163373ffffffffffffffffffffffffffffffffffffffff1614610c1b576040517f08c379a0000000000000000000000000000000000000000000000000000000008152600401610c1290611195565b60405180910390fd5b6005811115610c5f576040517f08c379a0000000000000000000000000000000000000000000000000000000008152600401610c5690611741565b60405180910390fd5b806001819055507f8c4d35e54a3f2ef1134138fd8ea3daee6a3c89e10d2665996babdf70261e2c7681604051610c959190610fb0565b60405180910390a150565b6004818051602081018201805184825260208301602085012081835280955050505050506000915090505481565b6000806000600284604051610ce39190611226565b908152602001604051809103902054600385604051610d029190611226565b908152602001604051809103902054600486604051610d219190611226565b9081526020016040518091039020549250925092509193909250565b6000604051905090565b600080fd5b600080fd5b600080fd5b600080fd5b6000601f19601f8301169050919050565b7f4e487b7100000000000000000000000000000000000000000000000000000000600052604160045260246000fd5b610da482610d5b565b810181811067ffffffffffffffff82111715610dc357610dc2610d6c565b5b80604052505050565b6000610dd6610d3d565b9050610de28282610d9b565b919050565b600067ffffffffffffffff821115610e0257610e01610d6c565b5b610e0b82610d5b565b9050602081019050919050565b82818337600083830152505050565b6000610e3a610e3584610de7565b610dcc565b905082815260208101848484011115610e5657610e55610d56565b5b610e61848285610e18565b509392505050565b600082601f830112610e7e57610e7d610d51565b5b8135610e8e848260208601610e27565b91505092915050565b6000819050919050565b610eaa81610e97565b8114610eb557600080fd5b50565b600081359050610ec781610ea1565b92915050565b600080600060608486031215610ee657610ee5610d47565b5b600084013567ffffffffffffffff811115610f0457610f03610d4c565b5b610f1086828701610e69565b935050602084013567ffffffffffffffff811115610f3157610f30610d4c565b5b610f3d86828701610e69565b9250506040610f4e86828701610eb8565b9150509250925092565b600060208284031215610f6e57610f6d610d47565b5b600082013567ffffffffffffffff811115610f8c57610f8b610d4c565b5b610f9884828501610e69565b91505092915050565b610faa81610e97565b82525050565b6000602082019050610fc56000830184610fa1565b92915050565b600073ffffffffffffffffffffffffffffffffffffffff82169050919050565b6000610ff682610fcb565b9050919050565b61100681610feb565b811461101157600080fd5b50565b60008135905061102381610ffd565b92915050565b60008060006060848603121561104257611041610d47565b5b600084013567ffffffffffffffff8111156110605761105f610d4c565b5b61106c86828701610e69565b935050602061107d86828701611014565b925050604061108e86828701610eb8565b9150509250925092565b60006110a382610fcb565b9050919050565b6110b381611098565b82525050565b60006020820190506110ce60008301846110aa565b92915050565b6000602082840312156110ea576110e9610d47565b5b60006110f884828501610eb8565b91505092915050565b60006060820190506111166000830186610fa1565b6111236020830185610fa1565b6111306040830184610fa1565b949350505050565b600082825260208201905092915050565b7f4f6e6c79206f776e65722063616e2063616c6c20746869730000000000000000600082015250565b600061117f601883611138565b915061118a82611149565b602082019050919050565b600060208201905081810360008301526111ae81611172565b9050919050565b600081519050919050565b600081905092915050565b60005b838110156111e95780820151818401526020810190506111ce565b60008484015250505050565b6000611200826111b5565b61120a81856111c0565b935061121a8185602086016111cb565b80840191505092915050565b600061123282846111f5565b915081905092915050565b7f496e73756666696369656e742062616c616e6365000000000000000000000000600082015250565b6000611273601483611138565b915061127e8261123d565b602082019050919050565b600060208201905081810360008301526112a281611266565b9050919050565b7f416d6f756e74206d7573742062652067726561746572207468616e2030000000600082015250565b60006112df601d83611138565b91506112ea826112a9565b602082019050919050565b6000602082019050818103600083015261130e816112d2565b9050919050565b7f496e76616c696420726563697069656e74000000000000000000000000000000600082015250565b600061134b601183611138565b915061135682611315565b602082019050919050565b6000602082019050818103600083015261137a8161133e565b9050919050565b7f4e487b7100000000000000000000000000000000000000000000000000000000600052601160045260246000fd5b60006113bb82610e97565b91506113c683610e97565b92508282026113d481610e97565b915082820484148315176113eb576113ea611381565b5b5092915050565b7f4e487b7100000000000000000000000000000000000000000000000000000000600052601260045260246000fd5b600061142c82610e97565b915061143783610e97565b925082611447576114466113f2565b5b828204905092915050565b600061145d82610e97565b915061146883610e97565b92508282039050818111156114805761147f611381565b5b92915050565b600061149182610e97565b915061149c83610e97565b92508282019050808211156114b4576114b3611381565b5b92915050565b60006040820190506114cf6000830185610fa1565b6114dc6020830184610fa1565b9392505050565b600081905092915050565b50565b60006114fe6000836114e3565b9150611509826114ee565b600082019050919050565b600061151f826114f1565b9150819050919050565b7f5472616e73666572206661696c65640000000000000000000000000000000000600082015250565b600061155f600f83611138565b915061156a82611529565b602082019050919050565b6000602082019050818103600083015261158e81611552565b9050919050565b7f496e76616c696420616464726573730000000000000000000000000000000000600082015250565b60006115cb600f83611138565b91506115d682611595565b602082019050919050565b600060208201905081810360008301526115fa816115be565b9050919050565b6000819050919050565b600061162661162161161c84610fcb565b611601565b610fcb565b9050919050565b60006116388261160b565b9050919050565b600061164a8261162d565b9050919050565b61165a8161163f565b82525050565b60006040820190506116756000830185611651565b6116826020830184610fa1565b9392505050565b7f4d7573742073656e642045544800000000000000000000000000000000000000600082015250565b60006116bf600d83611138565b91506116ca82611689565b602082019050919050565b600060208201905081810360008301526116ee816116b2565b9050919050565b7f46656520746f6f20686967680000000000000000000000000000000000000000600082015250565b600061172b600c83611138565b9150611736826116f5565b602082019050919050565b6000602082019050818103600083015261175a8161171e565b905091905056fea2646970667358221220992e6104ebfeebfbf845777469abed90940ce9e71455e1b2f5cdd66bca7f52de64736f6c63430008140033",
  "linkReferences": {},
  "deployedLinkReferences": {}
}